:020000040000FA
:04000000B2EF3DF02E
:107B64000001B5EF3DF07D0ECA6ED3508F0B1009A6
:107B7400D36EBD50F00B0C09BD6E000E946E000E5A
:107B84008B6E010E936E000E816E81909B0ECB6EF8
:107B9400010EBE6E300EBD12000E056E000E046E98
:107BA4008104D8A4D8EF3DF0DAEF3DF0D2EF3DF0F8
:107BB400000E816E000E076E000E066E000E076E3C
:107BC400010E066E04040510D8A4EBEF3DF0EDEFB2
:107BD4003DF059EF3EF0300EBD1206C0BEFF000E60
:107BE400096E000E086E08500910D8A4FCEF3DF091
:107BF400FEEF3DF009EF3EF0040E016E3E0EE82E5E
:107C0400FED7012EFCD7CF0EBD1634EF3EF008048C
:107C14000910D8A410EF3EF012EF3EF01FEF3EF033
:107C2400040E016E3E0EE82EFED7012EFCD7BD5089
:107C3400CF0B1009BD6E34EF3EF0020E0818091088
:107C4400D8A427EF3EF029EF3EF034EF3EF0040EC7
:107C5400016E3E0EE82EFED7012EFCD7BD50CF0B91
:107C64002009BD6E030E08180910D8A43CEF3EF09D
:107C74003EEF3EF047EF3EF0040E016E3E0EE82E5E
:107C8400FED7012EFCD7300EBD12084A092A09BEC0
:107C940055EF3EF0095009E1040E085CD8A055EFF9
:107CA4003EF057EF3EF0F5EF3DF0C4EF3EF0CF0E5F
:107CB400BD1606C0BEFF000E096E000E086E085009
:107CC4000910D8A468EF3EF06AEF3EF075EF3EF07D
:107CD400040E016E3E0EE82EFED7012EFCD7CF0E09
:107CE400BD16A0EF3EF008040910D8A47CEF3EF0C6
:107CF4007EEF3EF08BEF3EF0040E016E3E0EE82E5A
:107D0400FED7012EFCD7BD50CF0B1009BD6EA0EFDE
:107D14003EF0020E08180910D8A493EF3EF095EF38
:107D24003EF0A0EF3EF0040E016E3E0EE82EFED7AC
:107D3400012EFCD7BD50CF0B2009BD6E030E0818D1
:107D44000910D8A4A8EF3EF0AAEF3EF0B4EF3EF03D
:107D5400070E016E7D0EE82EFED7012EFCD700F033
:107D6400300EBD12084A092A09BEC2EF3EF009507E
:107D740009E1040E085CD8A0C2EF3EF0C4EF3EF067
:107D840061EF3EF0064A072A07BED2EF3EF00750E5
:107D940009E1130E065CD8A0D2EF3EF0D4EF3EF01A
:107DA400E4EF3DF0300EBD12000E056E010E046EC0
:0C7DB400010EBE6ED2EF3DF000EF00F0BB
:020000040020DA
:08000000FFFFFFFFFFFFFFFF00
:020000040030CA
:0E000000FF081B1EFF8181FF0FC00FE00F40A5
:00000001FF
