:020000040000FA
:04000000C7EF3FF017
:107F8E000001CAEF3FF0000E026E0168000E046E93
:107F9E000D0E036EDFEC3FF001C003F002C004F0E3
:107FAE0003C001F00450026EDBEF3FF000EF00F073
:107FBE00936A080E936EE86A01C08AFF02C08BFFB7
:107FCE0003500BD88B6003D008D88A9003D08B5EF9
:107FDE0004D88A80932EF6D703D08A368B361200B9
:107FEE008B428B9E8ACF01F08BCF02F0E8CF03F04D
:027FFE0012006F
:020000040020DA
:08000000FFFFFFFFFFFFFFFF00
:020000040030CA
:0E000000FF071F1FFF8385FF0FC00FE00F409B
:00000001FF
